:020000040800F2
:10000000106100209D010008DF3300083B3000082C
:100010004D320008CF0A0008BB4500080000000070
:100020000000000000000000000000007739000818
:10003000D314000800000000013400083D3D000812
:10004000B7010008B7010008B7010008B7010008B0
:10005000B7010008B7010008B7010008B7010008A0
:10006000B7010008B7010008B7010008B701000890
:10007000B7010008B7010008B7010008B701000880
:10008000B7010008B7010008B7010008B701000870
:10009000B7010008B7010008B7010008B701000860
:1000A000B7010008B7010008B7010008B701000850
:1000B000B7010008B7010008B7010008B701000840
:1000C000B7010008B7010008B7010008B701000830
:1000D000B7010008B7010008B7010008B701000820
:1000E000B7010008B7010008B7010008B701000810
:1000F000B7010008B7010008B7010008B701000800
:10010000B7010008B7010008B7010008B7010008EF
:10011000B7010008B7010008B7010008B7010008DF
:10012000B7010008B7010008B7010008B7010008CF
:10013000B7010008B7010008B7010008B7010008BF
:10014000B7010008B7010008B7010008B7010008AF
:10015000B7010008B7010008B7010008B70100089F
:10016000B7010008B7010008B7010008B70100088F
:10017000B7010008B7010008B7010008000000003F
:10018000B7010008B7010008DFF80CD000F05AFBF7
:1001900000480047D15800081061002006488047F9
:1001A00006480047FEE7FEE7FEE7FEE7FEE7FEE75C
:1001B000FEE7FEE7FEE7FEE7F13D000889010008E3
:1001C0002DE9F05F0546002092469B46884606468C
:1001D000814640241BE0284641464746224600F01F
:1001E000EEF853465A46C01A914110D311461846AC
:1001F000224600F0D5F82D1A67EB01084F4622463B
:100200000120002100F0CCF817EB00094E41201E20
:10021000A4F10104DFDC484631462A46434600F09B
:1002200000B830BCBDE8C09F00487047547A000851
:100230000649074A0868504343F2390210440860EF
:1002400040087047014908607047000084000020A2
:100250006D4EC64140EA01039B0703D009E008C97F
:10026000121F08C0042AFAD203E011F8013B00F87B
:10027000013B521EF9D27047D2B201E000F8012BC7
:10028000491EFBD270470022F6E710B513460A4616
:1002900004461946FFF7F0FF204610BD10B504468E
:1002A00004E00B7800F8013B03B1491C521EF8D260
:1002B000204610BD421C10F8011B0029FBD1801AFA
:1002C000704710B5002200E0521C835C8C5CA34296
:1002D00001D1002BF8D1D8B2E1B2401A10BD30B52F
:1002E00005460020034600E05B1C934205D2EC5C0F
:1002F000C85C201A01D1002CF6D130BD70B506467D
:1003000004F07CF9046805460A220021304600F01A
:1003100066F82C6070BD00F0004230F000400AD05A
:10032000C10D01F56071C0F3160042EA0151C20827
:1003300040071143704700200146704701F0004319
:1003400030B421F0004150EA010206D00A0DA2F5B6
:100350006072C1F31301002A02DC30BC0020704738
:10036000440F44EAC104C100E01830BC00EBC250A5
:1003700000F06DB830B50B46014600202022012464
:1003800009E021FA02F59D4205D303FA02F5491B63
:1003900004FA02F52844151EA2F10102F1DC30BD79
:1003A000202A04DB203A00FA02F100207047914035
:1003B000C2F1200320FA03F3194390407047202A2A
:1003C00004DB203A21FA02F00021704721FA02F3FF
:1003D000D040C2F1200291400843194670472DE9F0
:1003E000F04791460F4680460446002614F8015B0C
:1003F0002DB1FFF719FF0068405DC007F6D12B2D26
:1004000002D02D2D18D0641E4A463946204600F0F1
:100410003DFA27B13968A14201D1C7F800807105C2
:100420004FF002040BD54042002803DD04F0E6F84B
:100430000460A007BDE8F08746F48066E4E7002882
:10044000F8DA04F0DBF804606FF00040F2E700290E
:10045000A8BF7047401C490008BF20F0010070474A
:1004600010B4B0FA80FC00FA0CF050EA010404BFAA
:1004700010BC704749B1CCF1200421FA04F411FA00
:100480000CF118BF012121430843A3EB0C01CB1D44
:100490004FEA00614FEA102042BF002010BC7047B5
:1004A00000EBC35010440029A4BF10BC7047401C8F
:1004B000490008BF20F0010010BC70472DE9FE4F35
:1004C000804681EA0300C00F0C46009021F00041F5
:1004D00023F00045B8EB0200A94105D24046214671
:1004E00090461C460B46024623F00040104347D07E
:1004F000270DC7F30A00C3F30A510290401A019076
:1005000040286BDAC3F3130040F4801B0098924636
:1005100020B10023D2EB030A63EB0B0B0198594681
:10052000C0F140025046FFF73BFF06460D465046DD
:100530005946019A00F098F910EB08006141002437
:1005400087EA115284EAE7731A4340D0009A62B3F3
:10055000019A012A4FEA075215DC001B61EB0201E8
:100560004FF0004202EA0752CDE90042001C41F57B
:10057000801132462B4600F0EAF903B000F045B88E
:1005800040462146F9E7001B61EB0201001C41F5E2
:10059000801300185B412018A2F5001747EB0301F8
:1005A00040EAD570B6196D4111E06D084FEA360684
:1005B00045EAC0754FEA0752001B61EB0201001CBF
:1005C00041F5801149084FEA300000195141324687
:1005D0002B4603B000F01CB800F0AAB90098012225
:1005E00040000023D0EB020263EBE0730098214649
:1005F0004FEAE074B8EB000061EB0401E9E783F037
:1006000000435BE781F0004158E730BCBDE8C08F94
:1006100030BCBDE8C04FFFF7DFBF2DE9FE4F81EAD8
:10062000030404F0004421F0004100944FF0000B5B
:1006300023F0004350EA01045ED052EA03045BD089
:10064000C3F30A54C1F30A552C44A4F2F3340194C1
:10065000A0FB0254C1F3130141F48011C3F313034F
:1006600043F4801301FB024400FB034E840A970A03
:1006700044EA815447EA8357A4FB076802958D0A30
:1006800005FB07854FEA932C04FB0C542705029DBC
:100690004FEA065847EA1637B5EB08056EEB070C2C
:1006A000870E920E47EA811742EA8312A7FB0201E6
:1006B000B6EB0B0164EB00042B0D43EA0C335E1820
:1006C00044EB1C50DA465146E7FB0201C5F3130424
:1006D0004FEA0B3343EA14534FEA0432019C43EAD6
:1006E0000603A4F10C040294009CCDE900B400F0D0
:1006F0002EF903B000F003B800200146F9E730BC42
:10070000BDE8C08F2DE9F04D81EA030404F0004BF1
:1007100021F0004514464FF0000A23F0004150EA52
:10072000050220D054EA01021DD0C5F30A57024643
:10073000C5F31303C1F31300C1F30A5640F4801547
:1007400043F48013A7EB0608101BD64608F2FD38C9
:1007500073EB050002D308F1010801E092185B4138
:10076000B8F1000F03DA00200146BDE8F08D00204B
:100770004FF48011064684460EE0171B73EB050705
:1007800005D3121B63EB050306434CEA010C490831
:100790004FEA300092185B4150EA0107EDD152EA6E
:1007A000030012D082EA040083EA0501084305D061
:1007B000101BAB4106D20122002306E000224FF0BD
:1007C000004302E06FF0010253101AEB06004CEBFD
:1007D000085110EB0A0041EB0B01BDE8F04D00F0B1
:1007E000A7B8C1F30A52C1F3130140F2FF3341F439
:1007F00080119A4202DA00200146704740F23343EA
:100800009A42A2F2334202DC5242FFF7D8BDFFF710
:10081000C7BD000030B5041E71F1000404DB4FF0C9
:100820000044404264EB0101141E73F1000405DB37
:100830001C464FF00043524263EB0403994208BF49
:10084000904230BD064C074D06E0E06840F00103E1
:1008500094E8070098471034AC42F6D3FFF798FCB1
:10086000607B0008807B0008202A06DBCB17203A3B
:1008700041FA02F043EAE07306E041FA02F3D040A5
:10088000C2F1200291400843194670472DE9F05FFC
:1008900082460078002715468B460AF10104B946C6
:1008A000302801D09DB113E014F8010B01277828FE
:1008B00003D0582801D045B10AE00DB1102D07D161
:1008C0000027102514F8010B02E0082500E00A2596
:1008D0000026B0460EE005FB080005FB06F10127E7
:1008E00001EB10461FFA80F8B6F5803F00D3B946F9
:1008F00014F8010B294600F078F80028EBDABBF178
:10090000000F05D00FB1641E00E05446CBF8004044
:10091000B9F1000F06D003F071FE02210160C81E7C
:1009200000F003B848EA0640FAE730BCBDE8C09FD3
:1009300010B5141E73F1000408DA401C41F10001E7
:1009400092185B411A4301D120F0010010BD2DE93E
:10095000F04D92469B4611B1B1FA81F202E0B0FA35
:1009600080F220329046FFF71BFD04460F4640EA16
:100970000A0041EA0B0153465A46084313D0114678
:1009800053EA010019D0C8F140025046FFF717FDA5
:1009900005460E46504659464246FFF701FD0843BC
:1009A00005D0012004E020463946BDE8F08D002046
:1009B000054346EAE0762C4337430A986305E40A88
:1009C000A0EB08000022FD0A44EA47540A3002D591
:1009D00000200146E9E7010510196941DDE90845F4
:1009E00000196941BDE8F04DA2E73A2800D230383D
:1009F00020F02002412A01D3A2F13700884201D31E
:100A00004FF0FF30704700002DE9F0470546082001
:100A100003F026FE044605EB8500C00003F020FE2F
:100A2000C4E900050020042601464FF01E082023DB
:100A30004FF0240914E000BF00EB8002276808EBA8
:100A4000C20C401C07F80C60276803EBC20C47F887
:100A50000C10276807F83210276809EBC202B95456
:100A6000A842E9D32046BDE8F087006801EB810188
:100A700000EBC1007047406870472DE9F041044623
:100A8000069D40681F4616468846A8421DD908465E
:100A9000FFF710FC1E2818D805EB85051E212068DD
:100AA00001EBC5011E2247542021206801EBC5013E
:100AB00046502068414600EBC500FFF7EFFB0120E0
:100AC0002422216802EBC5028854BDE8F081FEE7CC
:100AD00070B50546382003F0C3FD04460E481049A2
:100AE000C4E904400D48C4E906010F480D49C4E9B2
:100AF00008100F480D49C4E90A100E4820636D1C08
:100B00000D48E5606063284603F0AAFD01462160B8
:100B1000A1602046616070BD6F650008A9510008A2
:100B2000456C0008CD6E00081D6C00083579000882
:100B30000F7900086D500008E751000810B5044611
:100B400000F025F8E168081A401E10BD103070470B
:100B50002DE9F04116460F46044600F018F84FF014
:100B6000FF38B04211D30025A06800787855D4E949
:100B700001016D1C814208D0204605F0ECFCA0600C
:100B8000AE42F1D82846BDE8F0814046FBE7D0E907
:100B900002214368934201D3981A01E0D01A081A3F
:100BA000B0FBF1F201FB120070472DE9F04116464F
:100BB0000F460446FFF7C2FF4FF0FF38B04215D38F
:100BC00000256168785D6D1C08702046616805F03D
:100BD000C2FCA168884209D02046616805F0BBFCD0
:100BE0006060AE42EDD82846BDE8F0814046FBE7A4
:100BF00070B505462C2003F033FD04462846FFF768
:100C000067FF2060FFF7A2FF01462822201DFFF7A3
:100C100021FB204670BD0068FFF798BF4169001DA9
:100C20000847006800F06DBC70B50546142003F05D
:100C300017FD0446042000F003FD00F014FD606081
:100C4000012020729FED030A256084ED040A2046EE
:100C500070BD000000000000006800F095BC406816
:100C60007047007A032801D00020704701207047A8
:100C700010B504462DED028B82B0007A032805D012
:100C80004FF0FF3002B0BDEC028B10BD607AF0B1C6
:100C900001281FD00228E06822D090ED008A00BF12
:100CA0008DED008A6068416A8847606894ED040AA7
:100CB000816988476068B0EE480A8169884784ED99
:100CC000048A01226946206800F093FCDAE7E068B4
:100CD000007802E0E068008880B200EE100A01E0CF
:100CE00090ED000AB8EE408ADAE7C1604272017AFC
:100CF000012901D1022101727047017A022901D034
:100D0000002070470321017201207047017A0329F6
:100D100001D00020704702210172012070470000BD
:100D20002DE9F043054640689FB0002854D0426B3F
:100D3000A96890470446401C4ED0A600304603F0F8
:100D40008FFC8146304603F08BFC8046204603F042
:100D500087FC074600262CE00096D5E901011E23FA
:100D6000D0F838C00DAAE04710B30DA8FFF7C6FAB7
:100D70001B4B49F826000DF1240C0FCB8CE80F001B
:100D8000A86809900DA80A90686809A94269904767
:100D900048F8260001200C906868142319AAD0F89E
:100DA00020C009A9E047142119A805F015FEB8557F
:100DB000761CA642D0D3CDE91747CDE9158928681E
:100DC00015A982689047384603F01CFC404603F0A2
:100DD00019FC484603F016FC1FB0BDE8F083000084
:100DE0009079000870B504460E460C2003F038FCDC
:100DF00005462046C5E90046E16888470146284681
:100E0000A96070BD2DE9F04107460E46282003F089
:100E100027FC0446B500284603F022FC2061284642
:100E200003F01EFC6061304603F01AFC0021C4E9A7
:100E3000061006492046C4E900410549A16005495C
:100E4000E160C4E90867BDE8F08100002D6D00088D
:100E5000E96D00081554000870470000014800685B
:100E6000704700006400002010B50446142003F011
:100E7000F7FB0449C0E90001034981600349C0E967
:100E8000031410BD5F6D00083F6E00082154000878
:100E900070470000014800687047000068000020AB
:100EA00010B50446142003F0DBFB0449C0E900013F
:100EB000034981600349C0E9031410BD676D000850
:100EC000416E00082D54000870470000014800687A
:100ED000704700006C0000202DE9F04780469946DD
:100EE00015460E463420089F03F0BAFB04462946F7
:100EF000304600F067F92060404600F0EBF8606093
:100F000029463046FFF77EFFA060404600F0AEF96C
:100F10002061404600F0C8F96061484600F098FA48
:100F2000A0614046FFF7A0FFE0614046FFF7B8FF31
:100F3000E060A068FFF790FF3946FFF753FF20629B
:100F4000206800F061F9394600F02CF960622069F0
:100F500000F0A2F9394600F079F9A062A06900F02A
:100F60008BFA2B463246394600F05CFAE062606844
:100F700000F0C6F8394600F09DF820632046BDE831
:100F8000F08770B504460D46006800F03FF9014651
:100F90002846FFF796F9C8B3606800F0B3F8014639
:100FA0002846FFF78EF990B3A068FFF757FF014678
:100FB0002846FFF786F958B3206900F06FF901461B
:100FC0002846FFF77EF9E0B3606900F083F9014637
:100FD0002846FFF776F9E0B3A06900F04FFA014622
:100FE0002846FFF76EF9C8B3E069FFF753FF0146E3
:100FF0002846FFF766F9C8B3E068FFF767FF0146C8
:101000002846FFF75EF9B0B3002070BD01E008E0AC
:101010000FE0606A00F07CF82068BDE8704000F0E6
:10102000F3B8206B00F02CF86068BDE8704000F069
:1010300067B8206AFFF774FEA068BDE87040FFF74C
:101040000BBFA06A00F0E8F82069BDE8704000F02E
:1010500023B96069BDE8704000F03AB9E06A00F079
:101060003FF9A069BDE8704000F006BAE069BDE84C
:101070007040FFF70DBFE068BDE87040FFF724BF88
:1010800010B50446406886B000280ED0084B0FCB40
:101090008DE80F00A068009060686946426990473B
:1010A0000490206804A98268904706B010BD000033
:1010B000A079000870B504460E460C2003F0D0FA63
:1010C00005462046C5E90046E168884701462846AE
:1010D000A96070BD10B50446182003F0C1FA054997
:1010E000C0E90001044981600449C0E903140021FA
:1010F000416110BD6F6D0008436E0008395400084F
:101100007047000001480068704700007000002030
:101110002DE9F0410646406898B000283FD0426B68
:10112000B16890470446401C39D0A00003F098FAFB
:101130008046204603F094FA0746002520E00095FB
:10114000D6E901011E23D0F838C00BAAE047B0B1A0
:101150000BA8FFF7D3F848F825000020139014904F
:1011600015901690B06813900BA81490706813A98E
:10117000C269904708B1032000E0022078556D1C39
:10118000A542DCD30897CDE90984306808A98268B4
:101190009047384603F036FA404603F033FA18B069
:1011A000BDE8F08170B504460E460C2003F058FAF5
:1011B00005462046C5E90046E168884701462846BD
:1011C000A96070BD70B506460D46242003F048FAAC
:1011D0000446284603F044FA6061A80003F040FA90
:1011E000A0610020C4E907060448C4E9004004489F
:1011F000A0600448C4E90305204670BD796D00086D
:101200004D6E000845540008704700000148006812
:10121000704700007400002010B50446406886B096
:1012200000280ED0084B0FCB8DE80F00A06800906F
:1012300060686946426990470490206804A9826802
:10124000904706B010BD0000B079000870B50446A4
:101250000E460C2003F004FA05462046C5E9004678
:10126000E168884701462846A96070BD10B504466C
:10127000182003F0F5F90021C0E904410349C0E951
:101280000001034981600349C16010BDB56D0008CC
:10129000996E00085154000870470000014800682A
:1012A000704700007800002010B50446142003F0B9
:1012B000D7F90449C0E90001034981600349C0E945
:1012C000031410BDBF6D0008A16E00085D54000836
:1012D0007047000001480068704700007C00002053
:1012E0002DE9F04104462DED028BA6B040680028A0
:1012F00065D03A4B0EAD0FCB85E80F00A0680E907D
:1013000060680EA94269904721690546A94200D844
:101310000025E06850F82500FFF7A1FC01462822CF
:1013200012A8FEF797FF2EA00F9060680EA98269A1
:1013300090472DA00F906068B0EE408A1423066A93
:101340001CAA0EA9B0471CAF1426324628A1384665
:10135000FEF7C5FF58B1324628A13846FEF7BFFF59
:1013600090B3324627A13846FEF7B9FF68B301268D
:1013700026A00F906068142321AA076A0EA9B84717
:101380000DF1840814273A4622A14046FEF7A7FF34
:1013900028B13A4621A14046FEF7A1FFD0B1012075
:1013A0008DED008A01908DF80860282212A903A80B
:1013B000FEF750FF0D95206869468268904726B079
:1013C000BDEC028BBDE8F08100E001E00026CFE734
:1013D0000226CDE74FF0FF30E2E70000C0790008B9
:1013E0006C6576656C0000006D6F64650000000040
:1013F000436F6E74696E6F75730000004E6F726D8F
:10140000616C00004F6E6553686F740065646765BA
:1014100000000000726973696E67000066616C6CA1
:10142000696E67002DE9F0410546984616460F465D
:10143000142003F015F904462846C4E90057E9686A
:10144000884701462046083484E84201BDE8F0811F
:1014500010B504464C2003F003F90449C0E900012B
:10146000034981600349C0E9031410BDC76D00083A
:10147000A36E000869540008704700000148006826
:10148000704700008000002010B5082003F0E8F845
:1014900000210160416010BD10B5044619B1012959
:1014A0000CD0002010BD206808B1206802E000F0D8
:1014B00011F82060BDE8104000F022B8606808B163
:1014C000606802E003F062F86060BDE8104003F07D
:1014D00073B8704710B5142003F0C2F804490161D5
:1014E0000449C160044981600449C0E9000110BD9C
:1014F00061500008775100082D530008D378000888
:1015000070470168416081607047000070B5054612
:10151000382003F0A5F804460E496D1CC4E9040107
:101520000D4981610D49C1610D4901620D49416259
:101530000D4981620D49C1620D4901630D49E560A4
:10154000A800616303F08CF801462160A160204689
:10155000616070BD6B65000889510008236C00084C
:10156000C16E0008116C00081579000803790008A5
:1015700069500008D351000810B5044600F029F85E
:10158000E168081A401E10BD103070472DE9F04187
:1015900016460F46044600F01CF84FF0FF38B042E4
:1015A00015D30025A06890ED000A07EB85006D1C9F
:1015B00080ED000AD4E90101814208D0204604F000
:1015C000B2FFA060AE42EDD82846BDE8F0814046AB
:1015D000FBE7D0E902214368934202D3981A8010B6
:1015E00002E0D01AA1EBA000B0FBF1F201FB120067
:1015F00070472DE9F04116460F460446FFF7BCFF41
:101600004FF0FF38B04219D3002507EB85006D1C61
:1016100090ED000A606880ED000A2046616804F0E1
:1016200082FFA168884209D02046616804F07BFFF0
:101630006060AE42E9D82846BDE8F0814046FBE74D
:1016400070B505462C2003F00BF804462846FFF73A
:101650005DFF2060FFF798FF01462822201DFEF75E
:10166000F9FD204670BD0068FFF78EBF2DE9F84FE9
:101670000027DFF88CB20D460446B0F1904F17D02A
:101680005C4515D09F48844212D09F4884420FD0B9
:101690009E4884420CD09E48844209D09D48844292
:1016A00006D09D48844203D0C3219CA003F09BFC3C
:1016B00028680104090C01D0000C03D0C42197A0B4
:1016C00003F091FC686808B301281FD011281DD0D1
:1016D00002281BD0122819D09F49884216D09F4952
:1016E000884213D09E49884210D09E4988420DD02E
:1016F0009D4988420AD09D49884207D0032805D0D9
:101700000B2803D0C52185A003F06DFCA868002834
:1017100007D00128FCD00228FAD0C6217FA003F010
:1017200062FCE5E00646012000FA07F816EA080622
:101730007ED06868022801D012282ED1B4F1904FD3
:1017400017D05C4515D06F48844212D06E48844251
:101750000FD06E4884420CD06D48844209D06D4849
:10176000844206D06C48844203D0D5216BA003F09C
:101770003AFC28690F2803D9D62168A003F033FC6E
:10178000F80804EB8002116A7807C30E0F20984016
:101790008143286998400843106220687A00032139
:1017A00001FA02F92979924601F0030120EA0900C1
:1017B00001FA0AF1014321606868012805D0022876
:1017C00003D0112801D012281CD1E86848B10128A3
:1017D00007D0022805D0032803D0EA214FA003F048
:1017E00002FCA068E96820EA090001FA0AF1014355
:1017F000A1606068297920EA0800C1F30011B940AE
:10180000014361606968C843800707D1E06AC1F39A
:10181000C00120EA0800B9400143E162E068A9681C
:1018200020EA090001FA0AF10143E160686800E07A
:101830005DE0C0005BD54E48016E41F001010166DC
:10184000006E27F0030100F00100009049480A18DB
:101850009068B9070B0F0F2199408843B4F1904F5E
:1018600003D05C4503D101211BE0002119E025498B
:101870008C4201D1022114E023498C4201D1032181
:101880000FE022498C4201D104210AE020498C4218
:1018900001D1052105E01F498C4201D1062100E05C
:1018A0000721994001439160334908686A68B04351
:1018B000D20300D5304308602F49091D08686A68C3
:1018C000B043920300D5304308602B4908310868C3
:1018D0006A68B043D20200D53043086026480C3015
:1018E00001686A68B143920200D5314301607F1CF0
:1018F0002E683046FE407FF415AF00F03FB8000080
:101900000004004800080048000C0048001000488F
:101910000014004800180048001C00482E2E2F44D8
:101920007269766572732F53544D33324C34787824
:101930005F48414C5F4472697665722F5372632F22
:1019400073746D33326C3478785F68616C5F677084
:10195000696F2E63000000000000111000002110CC
:1019600000003110000012100000221000003210A0
:1019700000100240000001400004014018BCBDE816
:10198000E08F000070B515460C00064604D14FF4F8
:10199000E17107A003F027FB45B1012D04D040F20F
:1019A000C31103A003F01FFBB46170BDB46270BD2E
:1019B0002E2E2F447269766572732F53544D333235
:1019C0004C3478785F48414C5F4472697665722F79
:1019D0005372632F73746D33326C3478785F68613F
:1019E0006C5F6770696F2E6300000000014800683B
:1019F000704700000800002002480168491C01608F
:101A00007047000008000020094810B50168002454
:101A100041F480710160032000F0B4F8002000F070
:101A200009F808B1012401E000F01CF8204610BDBF
:101A30000020024070B5054609484FF47A71002431
:101A40000068B0FBF1F001F064F908B1012404E092
:101A500000222946501E00F045F8204670BD0000C7
:101A60000C0000201E4808B5016E41F0010101661E
:101A7000016E01F001010091816D41F0805181659D
:101A8000806D00F080500090032000F07BF8002271
:101A900011466FF00B0000F025F8002211466FF0A0
:101AA0000A0000F01FF8002211466FF0090000F054
:101AB00019F800221146501F00F014F800221146B8
:101AC000101F00F00FF800221146901E00F00AF8D7
:101AD0000022BDE808401146501E00F003B8000087
:101AE0000010024070B515460C460646102A03D376
:101AF000CF2114A003F077FA102C03D3D02111A02A
:101B000003F071FA1E480068C0F30223C3F1070214
:101B10002046042A00D90422191D072901D20023D6
:101B200000E0DB1E012404FA02F1491E0140994045
:101B30009C40641E2C4021433046BDE8704001F0BB
:101B40004FBC00002E2E2F447269766572732F539E
:101B5000544D33324C3478785F48414C5F4472695D
:101B60007665722F5372632F73746D33326C3478D1
:101B7000785F68616C5F636F727465782E630000D4
:101B80000CED00E010B5044607280BD0062C09D058
:101B9000052C07D0042C05D0032C03D0B72108A0B6
:101BA00003F021FA154904F0070208684FF6FF0315
:101BB000184040EA0220124A1043086010BD00009D
:101BC0002E2E2F447269766572732F53544D333223
:101BD0004C3478785F48414C5F4472697665722F67
:101BE0005372632F73746D33326C3478785F68612D
:101BF0006C5F636F727465782E6300000CED00E01B
:101C00000000FA0510B51B4CB0F5007F13D0B0F5FD
:101C1000806F03D0B82118A003F0E5F92068C0F365
:101C20004120022805D0206820F4C06040F4806084
:101C30002060002010BD2068C0F341200128F8D0AA
:101C4000206820F4C06040F4007020601948322100
:101C5000006848431849B0FBF1F0401C00E0401E0A
:101C60006169490501D50028F9D160694005E0D5D1
:101C7000032010BD007000402E2E2F44726976653F
:101C800072732F53544D33324C3478785F48414C43
:101C90005F4472697665722F5372632F73746D336C
:101CA000326C3478785F68616C5F7077725F6578EA
:101CB0002E6300000C00002040420F000248006824
:101CC00000F4C06070470000007000402DE9FC5F28
:101CD0000446002700683E46C20704F120014FF089
:101CE000406B4FF080684FF00069FE4D009129D1A4
:101CF000810727D4410725D4010723D4C10621D465
:101D000081061FD441061DD401061BD4C10519D478
:101D1000810517D4410515D4010516D4C10444D456
:101D200081047DD441047BD4010479D4C10377D4E8
:101D3000810378D441036AD4000369D4DB21EAA08B
:101D400003F051F9208800052CD5606E4FF4400A4D
:101D500058B1B0F5800F08D0B0F5000F05D0504550
:101D600003D0E321E0A003F03EF9606E70B1B0F55E
:101D7000800F10D0B0F5000F03D0504532D00127AE
:101D80000FE0E86840F48030E8602BE00021201D7F
:101D900001F038FB03E00021009801F03DFC070052
:101DA00020D03E462088C0043AD5A06E4FF0807AFD
:101DB00060B150450AD0B0F1007F07D0B0F1407F4C
:101DC00004D040F22111C8A003F00DF9A06EB8B103
:101DD00050451ED0B0F1007F0DD0B0F1407F1DD036
:101DE00001271CE0D5F88800616E20F4400008430C
:101DF000C5F88800D6E7E86840F48030E8600DE078
:101E00000021201D01F0FEFA07E009E00BE0ADE142
:101E1000F0E10021009801F0FFFB074667B33E4662
:101E20002068800349D5D4F884004FF0000A68B1D7
:101E3000B0F5807F0AD0B0F5007F07D0B0F5407FC5
:101E400004D04FF4AB71A8A003F0CDF8A86DC0008A
:101E500009D4A86D40F08050A865A86D4FF0010A24
:101E600000F080500190AF48016841F4807101603A
:101E7000FFF7BCFD019011E0D5F88800A16E20F0BD
:101E800040700843C5F88800CAE700BFFFF7AEFD01
:101E90000199401A022801D9032705E0A1480068EA
:101EA000C005F3D5002F7CD04FEA0706BAF1000F2A
:101EB00003D0A86D20F08050A8652078C00714D00A
:101EC000A06B50B1012808D0032806D0022804D006
:101ED00040F2AB1184A003F086F8D5F88800A16B1E
:101EE00020F003000843C5F888002078800714D547
:101EF000E06B50B1042808D00C2806D0082804D084
:101F000040F2B51178A003F06EF8D5F88800E16BC7
:101F100020F00C000843C5F888002078400714D54D
:101F2000206C50B1102808D0302806D0202804D0CA
:101F300040F2C1116CA003F056F8D5F88800216C6E
:101F400020F030000843C5F888002078000714D539
:101F5000606C50B1402808D0C02806D0802804D03A
:101F600040F2CF1160A003F03EF8D5F88800616C14
:101F700020F0C0000843C5F888002078C00619D5B5
:101F8000A06C68B1B0F5807F0AD0B0F5407F07D073
:101F9000B0F5007F04D040F2DD1153A003F023F828
:101FA00000E0E4E0D5F88800A16C20F4407008431C
:101FB000C5F888002078800617D5E06C68B1B0F5C8
:101FC000806F0AD0B0F5406F07D0B0F5006F04D035
:101FD00040F2E91144A003F006F8D5F88800E16C5E
:101FE00020F440600843C5F888002088800517D594
:101FF000E06D68B1B0F5802F0AD0B0F5002F07D0A2
:10200000B0F5402F04D04FF4F97137A002F0EBFF88
:10201000D5F88800E16D20F440200843C5F8880019
:102020002088400517D5206E68B1B0F5801F0AD012
:10203000B0F5001F07D0B0F5401F04D040F2F911F1
:1020400029A002F0D0FFD5F88800216E20F44010BE
:102050000843C5F888002078400614D5206D50B19B
:10206000B0F5805F07D0B0F5005F04D040F20121E9
:102070001DA002F0B8FFD5F88800216D20F4405073
:102080000843C5F888002078000614D5606D50B16B
:10209000B0F5804F07D0B0F5004F04D040F20D21CD
:1020A00011A002F0A0FFD5F88800616D20F4404037
:1020B0000843C5F888002088C00537D5A06D50B109
:1020C000B0F5803F07D0B0F5003F04D040F21921B1
:1020D00005A002F088FFD5F88800A16D20F44030FB
:1020E000084321E0001002402E2E2F4472697665CD
:1020F00072732F53544D33324C3478785F48414CCF
:102100005F4472697665722F5372632F73746D33F7
:10211000326C3478785F68616C5F7263635F657896
:102120002E63000000700040C5F8880020888004FD
:102130005DD5E06E58B1404509D0484507D05845B7
:1021400005D040F23221AFF2600002F04CFFD5F82A
:102150008800E16E20F040600843C5F88800E06E1A
:1021600048453CD1E86840F48010E8603FE0D5F88D
:10217000900010F4407015D0D4F88410814211D032
:10218000D5F89000D5F8901020F4407041F48031DB
:10219000C5F89010D5F8901021F48031C5F8901052
:1021A000C5F89000C00710D0FFF720FC074608E0F4
:1021B000FFF71CFCC11B41F28830814201D9032684
:1021C00074E6D5F890008007F2D5D5F89000D4F8E1
:1021D000841020F440700843C5F8900066E640453E
:1021E00005D10121201D01F00DF900B1064620683E
:1021F000000325D5206F58B1404509D0484507D088
:10220000584505D040F25321AFF2241002F0EBFE06
:10221000D5F88800216F20F040600843C5F8880099
:10222000206F484504D1E86840F48010E86007E07A
:10223000404505D10121201D01F0E4F800B106461A
:102240002068400325D5606F58B1404509D0484506
:1022500007D0584505D04FF41E71AFF2741002F04C
:10226000C2FED5F88800616F20F040600843C5F8D1
:102270008800606F484504D1E86840F48010E86049
:1022800007E0404505D10121201D01F0BBF800B158
:102290000646208840042AD5A06F4FF080574FF0A3
:1022A000005860B1B8420AD0404508D0B0F1405F54
:1022B00005D04FF42671AFF2D01002F094FED5F89D
:1022C0008800A16F20F040500843C5F88800A06F37
:1022D000B84204D10221201D01F094F805E04045E8
:1022E00005D10221009801F097F900B10646208837
:1022F000000412D5E06F40B1B0F1804F05D04FF42B
:102300003171AFF21C2002F06EFED5F88800E16F4B
:1023100020F080400843C5F888002068C00313D52A
:10232000D4F8800040B1B0F1004F05D040F2D22186
:10233000AFF24C2002F057FE55F8880FD4F8801009
:1023400020F0004008432860304600F000B83CBC54
:10235000BDE8C09F2DE9F0470E4605007ED02868F5
:10236000401E0E2804D940F225416FA002F03BFE2A
:1023700066B1012E0AD0022E08D0032E06D0042EFC
:1023800004D040F2264168A002F02DFE744F386858
:1023900000F00700B04209D2386820F0070030434F
:1023A0003860386800F00700B04270D128786D4C72
:1023B000C0073BD0686830B301280ED002281FD078
:1023C00003281AD040F23D4157A002F00CFE686885
:1023D000032812D0022813D0A8B120684005002895
:1023E00055DAA068696820F003000843A060FFF791
:1023F000FDFA804641F2883911E020688001EEE75D
:1024000020688003EBE720688007E8E7FFF7EEFA33
:10241000A0EB0801494502D90320BDE8F087A06878
:10242000696800F00C00B0EB810FEFD128788007CD
:102430001ED5A868B0B1802814D0902812D0A0284A
:1024400010D0B0280ED0C0280CD0D0280AD0E02858
:1024500008D0F02806D040F2994100E017E032A001
:1024600002F0C1FDA068A96820F0F0000843A06058
:10247000386800F00700B0420BD9386820F0070038
:1024800030433860386800F00700B04201D00120C6
:10249000C3E728784FF4806640074FF4A0674FF4F5
:1024A000C0684FF4E06914D5E86860B1B0420AD062
:1024B000B84208D0404506D0484504D04FF4976153
:1024C00019A002F090FDA068E96820F4E0600843DC
:1024D000A0602878000715D5286960B1B0420AD0FD
:1024E000B84208D0404506D0484504D040F2BF412C
:1024F0000DA002F078FDA068296920F4605040EA40
:10250000C100A06000F05EF8A168174AC1F3031192
:10251000515C01F01F01C84014490860BDE8F04754
:102520000020FFF787BA00002E2E2F4472697665CF
:1025300072732F53544D33324C3478785F48414C8A
:102540005F4472697665722F5372632F73746D33B3
:10255000326C3478785F68616C5F7263632E6300FD
:102560000020024000100240447900080C000020C6
:1025700001480068704700000C000020054806492B
:1025800000688968054AC1F30221515C01F01F010E
:10259000C84070470C0000200010024084790008F9
:1025A0000548064900688968054AC1F3C221515CA3
:1025B00001F01F01C84070470C00002000100240CD
:1025C0008479000870B52549002318468A68CC68CC
:1025D00012F00C0204F00306214C4FEA640509D006
:1025E0000C2A05D0042A26D0082A00D1284670BD1E
:1025F000012E10D10B681B0704D4D1F89430C3F31B
:10260000032302E00B68C3F30313164E56F823307E
:102610007AB10C2AEBD1C86800F00302C868C0F395
:102620000210401C022A08D0032A09D0B3FBF0F0A4
:1026300008E0184670BD204670BDB4FBF0F001E024
:10264000B5FBF0F0CA68C968C2F306225043C1F373
:102650004161491C4900B0FBF1F070BD001002401F
:102660000024F400547900082DE9F84304007DD0DB
:10267000206870B1C1070CD181070AD4C10608D403
:10268000010706D4400704D440F2AD11F1A002F0D6
:10269000AAFCFE4DA86800F00C06E86800F00307ED
:1026A0002078C0067ED5A06930B1012804D04FF44F
:1026B000DB71E8A002F097FCE069FF2804D940F242
:1026C000B711E4A002F08FFC206AD0B1102818D016
:1026D000202816D0302814D0402812D0502810D0EE
:1026E00060280ED070280CD080280AD0902808D0FE
:1026F000A02806D0B02804D04FF4DC71D5A002F099
:1027000072FC76B10C2E01D1012F0AD0A0690028ED
:1027100028687BD040F001002860FFF767F9804609
:102720005EE02868800702D5A06900289FD0216A52
:102730002868000703D5286800F0F00004E0D5F809
:102740009400F02202EA1010814218D9084601F0E4
:102750004BF800280AD1286840F008002860286853
:10276000216A20F0F0000843286000E0F7E0686884
:10277000E16920F47F4040EA0120686017E02868A2
:1027800040F0080028602868216A20F0F000084323
:1027900028606868E16920F47F4040EA01206860B1
:1027A000206A00E043E001F01FF80028D2D1FFF7D3
:1027B00009FFA968B64AC1F30311515C01F01F017A
:1027C000C840B44908600020FFF734F9002873D1ED
:1027D0002DE000BFFFF70AF9A0EB080002286CD833
:1027E00028688007F6D5286840F008002860286827
:1027F000216A20F0F000084328606868E16920F44D
:102800007F4040EA0120686011E0FFE720F001000E
:102810002860FFF7EBF8804606E000BFFFF7E6F818
:10282000A0EB08000228DAD828688007F6D42078C0
:10283000C00750D060684FF480384FF4A02940B1F1
:10284000404506D0484504D04FF4087181A002F0FD
:10285000CAFB082E0AD00C2E01D1032F06D06068C7
:1028600040450AD1286840F4803013E0286880038E
:1028700031D56068002872D02DE04845286803D122
:1028800040F480202860EDE720F48030286028683C
:1028900020F480202860606880B1FFF7A7F88046A8
:1028A00006E000BFFFF7A2F8A0EB0800642896D866
:1028B00028688003F6D50EE0EAE1E8E1FFF796F834
:1028C000804605E0FFF792F8A0EB0800642886D860
:1028D00028688003F6D42078800749D5E06838B1AD
:1028E000B0F5807F04D040F253215AA002F07BFB68
:1028F00020691F2804D94FF4157156A002F073FB0C
:10290000042E0ED00C2E01D1022F0AD0E068002830
:1029100028681DD040F480702860FFF767F80746EC
:102920000BE0286840050BD5E0680028A3D007E03D
:10293000FFF75CF8C01B0228B9D828684005F7D516
:102940006868217C20F0F85040EA016068600FE080
:1029500020F480702860FFF749F8074605E05AE147
:10296000FFF744F8C01B0228A1D828684005F7D417
:102970002078000731D56069E0B1012806D04FF416
:10298000257134A002F02FFB606998B1D5F894004E
:1029900040F00100C5F89400FFF728F8074604E06E
:1029A000FFF724F8C01B022891D8D5F894008007BF
:1029B000F6D512E0D5F8940020F00100C5F8940097
:1029C000FFF714F8074604E0FFF710F8C01B0228D1
:1029D000B2D8D5F894008007F6D42078400772D595
:1029E000A068002740B1012806D0052804D040F295
:1029F000E72118A002F0F7FAA86DC00008D4A86D6E
:102A000040F08050A865A86D012700F0805000902C
:102A100021480168C90513D40168814641F48071D9
:102A20000160FEF7E3FF804606E000BFFEF7DEFF31
:102A3000A0EB0800022897D8D9F80000C005F5D50A
:102A4000A06801283AD00528D5F890003CD020F0A5
:102A5000010023E02E2E2F447269766572732F5386
:102A6000544D33324C3478785F48414C5F4472693E
:102A70007665722F5372632F73746D33326C3478B2
:102A8000785F68616C5F7263632E630000100240C0
:102A9000447900080C00002000700040C5F8900048
:102AA000D5F8900020F00400C5F89000A06841F22D
:102AB0008839D0B1FEF79AFF804611E0D5F8900032
:102AC00040F00100F0E724E040F00400C5F8900079
:102AD000F4E700BFFEF78AFFA0EB08014945AAD83A
:102AE000D5F890008007F5D50EE0FEF77FFF804611
:102AF00006E000BFFEF77AFFA0EB080149459AD82F
:102B0000D5F890008007F5D41FB1A86D20F0805053
:102B1000A865A06A00287DD001280AD0022808D024
:102B200040F27531AFF2D40002F05DFAA06A0028DD
:102B3000F1D00C2E6FD0022808D0286820F08070C9
:102B40002860286810F0205F66D092E0E06A58B1F3
:102B5000012809D0022807D0032805D040F27F3190
:102B6000AFF2101002F03FFA206B401E072805D983
:102B70004FF46071AFF2241002F035FA606B083840
:102B80004E2805D940F28131AFF2381002F02BFA0D
:102B9000A06B072807D0112805D040F28331AFF28F
:102BA0004C1002F020FAE06B02280BD0042809D068
:102BB000062807D0082805D040F28531AFF26C1006
:102BC00002F011FA206C02280BD0042809D0062844
:102BD00007D0082805D040F28631AFF2881002F005
:102BE00002FA286820F080702860FEF7FFFE064693
:102BF00005E000BFFEF7FAFE801B022847D82868D0
:102C00008001F7D4206BE16A000110380843616B42
:102C1000090202E041E042E027E0A26B120941EA2A
:102C200042410843A18F1F4A490802EB4151084322
:102C300094F840104908120102EB41610843E86032
:102C4000286840F080702860E86840F08070E86094
:102C5000FEF7CCFE044604E0FEF7C8FE001B022887
:102C600015D828688001F7D517E0E86820F0030040
:102C7000E860E8680C490840E860FEF7B7FE0446E3
:102C800008E000BFFEF7B2FE001B022802D90320B5
:102C9000BDE8F88328688001F4D40020F8E701201B
:102CA000F6E700000000E0FFFFFFEEFE10B54FF07A
:102CB000E024042809D020B14FF4CA7105A002F025
:102CC00092F9206920F0040002E0206940F004003D
:102CD000206110BD2E2E2F447269766572732F53BA
:102CE000544D33324C3478785F48414C5F447269BC
:102CF0007665722F5372632F73746D33326C347830
:102D0000785F68616C5F636F727465782E63000032
:102D1000704710B5401EB0F1807F01D3012010BD77
:102D20004FF0E02460610F21601700F059FB002094
:102D3000A06107202061002010BD10B5FFF7E8FF5B
:102D400010BD00002DE9F041040018D0A0692D4904
:102D500000282D4A2D4B2E4D2E4E2F4F206811D07E
:102D6000884220D090421ED098421CD0A8421AD04F
:102D7000B04218D0B84216D04FF4A97110E001202B
:102D8000BDE8F08188420ED090420CD098420AD023
:102D9000A84208D0B04206D0B84204D040F2571141
:102DA0001EA002F020F994F8710028B9002084F8E0
:102DB0007000204600F050F8242084F8710020684C
:102DC000016821F001010160204601F0CDF90128E0
:102DD000D6D0606A10B1204601F08CF820684168B6
:102DE00021F4904141602068816821F02A018160CE
:102DF0002068016841F0010101602046BDE8F04112
:102E000001F084B90038014000440040004800400F
:102E1000004C004000500040008000402E2E2F4407
:102E20007269766572732F53544D33324C3478780F
:102E30005F48414C5F4472697665722F5372632F0D
:102E400073746D33326C3478785F68616C5F756170
:102E500072742E630000000000B500680E4987B050
:102E6000884217D10D48816D41F400318165806D34
:102E7000694600F4003005900C200090022001907B
:102E80000020029003200390072004904FF0904010
:102E9000FEF7ECFB07B000BD00440040001002400C
:102EA0002DE9F84F044690F872009A4616460D46F2
:102EB000202865D1EDB1E6B194F8700001285FD00B
:102EC000012084F8700000276767222084F87200D0
:102ED0005434FEF78BFDA6808146E68054F84C0CF6
:102EE0004FF48058FF21543C404508D1206918B167
:102EF0000DE0012000F046B840F2FF100DE07F2207
:102F000018B1B0F1805F05D009E0206950B9A4F88C
:102F10005C1004E0206928B13F20A4F85C00B4F8FC
:102F20005C601CE0A4F85C20F9E74B4600222021FD
:102F30002046CDF800A001F0F6FA08B10320D9E749
:102F4000A068404501D12069A0B12068808C304044
:102F500005F8010BB4F85A00401EA4F85A00B4F862
:102F60005A000028E1D1202084F8720084F87070A3
:102F70000020BFE72068808C304025F8020BE9E78D
:102F80000220B7E718BCBDE8E08F2DE9F8430446FE
:102F900090F871001F4616460D4620284BD1C5B14A
:102FA000BEB194F87000012845D0012084F870006B
:102FB0004FF00008C4F87480212084F87100FEF7F7
:102FC00015FDA4F850608146A4F852604FF4805675
:102FD00015E00120BDE8F8838021204601F0A3FA26
:102FE000D8B9A068B04201D12069C0B115F8010B71
:102FF00021680885B4F85200401EA4F85200B4F8C5
:1030000052004B464FF0000200970028E4D14FF0E9
:103010004001204601F087FA30B10320DAE735F8A5
:10302000020BC0F30800E3E7202084F8710084F865
:1030300070800020CEE70220CCE7FEE70168416007
:103040008160704770B50546382001F009FB0446E1
:103050000E496D1CC4E904010D4981610D49C1612E
:103060000D4901620D4941620D4981620D49C162FC
:103070000D4901630D49E560A800616301F0F0FAB4
:1030800001462160A1602046616070BD6D65000849
:1030900099510008356C0008C76E0008176C0008CD
:1030A00027790008097900086B500008DD510008F5
:1030B00010B5044600F026F8E168081A401E10BD5D
:1030C000103070472DE9F04116460F46044600F0D7
:1030D00019F84FF0FF38B04212D30025A0680068FD
:1030E00047F82500D4E901016D1C814208D0204633
:1030F00003F025FAA060AE42F0D82846BDE8F08182
:103100004046FBE7D0E902214368934202D3981A74
:10311000801002E0D01AA1EBA000B0FBF1F201FB9D
:10312000120070472DE9F04116460F460446FFF79E
:10313000BFFF4FF0FF38B04216D30025616857F843
:1031400025006D1C08602046616803F0F8F9A1684D
:10315000884209D02046616803F0F1F96060AE4210
:10316000ECD82846BDE8F0814046FBE730B5204862
:1031700087B0C16C41F00401C164C16C01F004016D
:103180000591C16C41F08001C164C16C01F0800106
:103190000591C16C41F00101C164C16C01F00101F4
:1031A0000591C16C41F00201C164C06C4FF09045C3
:1031B00000F002000590002220212846FEF7E2FBE5
:1031C0004FF4005000900B480024CDE901046946FB
:1031D0000948FEF74BFA202000900120CDE90104B8
:1031E000694628460394FEF741FA07B030BD000057
:1031F0000010024000002110000800480E4810B5E1
:103200000C4901604FF4E1314160002181600C22E2
:10321000C160C0E904128161C16101624162FFF7CE
:1032200091FD002805D0BDE81040442103A001F025
:10323000C5B910BD00440040940000202E2E2F532D
:1032400072632F75736172742E630000FEE70000D5
:103250002DE9F047984616460F46B020DDF820903D
:1032600001F0FEF90446BD00284601F0F9F9C4F862
:103270009400284601F0F4F9C4F85890C4F8788016
:103280002760266401460025C4E92051B600304677
:1032900001F0E6F9E064304601F0E2F9606430469E
:1032A00001F0DEF9256765671449A064C4E90141AE
:1032B0001349A1621349E1601349E1611349216196
:1032C000134961611349A161134961621349216284
:1032D00004F12C00E56201462563114A6563C4E9E7
:1032E0000E123030E565014625666566C4E91A129E
:1032F000201D03F007FD2046BDE8F0874167000868
:10330000056D0008936A0008DF6A0008176B000863
:103310003B6B00085F6B0008D5520008516A00083B
:10332000CD610008001D704770B50646C02001F051
:1033300097F904461A480025C4E900401948E0619D
:103340001948A06119486061194820621948206134
:103350001948E060194860631948A0631948A060E3
:103360001948A06219486062194820631948E06250
:10337000C4E92D56314604F1800002F0D5FF002843
:103380000DD004F140002021FCF77DFF04F1A000E6
:103390001149056045608560C4E92B01204670BD78
:1033A000C177000853520008E9540008B1550008DD
:1033B00067570008795600082D5700083557000850
:1033C000CF560008AB4F0008335600083D560008A2
:1033D000E9520008DB5200082D6200087047704770
:1033E0000907090E002806DA00F00F0000F1E020BE
:1033F00080F8141D704700F1E02080F80014704739
:10340000704700002DE9F041044600688846002618
:1034100050B1012808D0022806D0032804D040F675
:10342000443168A001F0DFFD6068401E072804D920
:1034300040F6453163A001F0D6FDA06808384E285B
:1034400004D940F646315FA001F0CDFDA069C1036B
:1034500003D4C10201D4C10102D56949084204D094
:1034600040F6473157A001F0BEFD664DE868800781
:103470000ED0E86800F003012068814217D1B0B196
:10348000E8686168C0F30210401C88420FD121E057
:103490002068012804D0022805D0032807D108E0BD
:1034A0002968890701E029684905002907DB012609
:1034B00084E02968890302D429684903F5E7E968AB
:1034C00062686FF00F0321F0730103EB02121143E6
:1034D0000143E960286820F080602860FEF786FAE2
:1034E000074604E0FEF782FAC01B02285DD8286870
:1034F0000001F7D4B8F1000F26D0B8F1010F36D093
:10350000606902280AD0042808D0062806D00828B6
:1035100004D04FF43D612BA001F065FD207D4FF0FC
:103520007E41400801EB4060A16840EA0120296922
:10353000354A114008432861286840F080602860BF
:10354000FEF754FA074632E0E068072806D0112853
:1035500004D040F69A311BA001F045FDA068E16857
:103560000002090940EA41402969284AE1E7206947
:1035700002280AD0042808D0062806D0082804D03B
:1035800040F6BE310FA001F02EFD208A20494008F0
:1035900001EB4050A16840EA012029691D4AC8E7B3
:1035A000FEF724FAC01B022801D9032606E028688A
:1035B0000001F5D52869A169084328613046BDE8B6
:1035C000F08100002E2E2F447269766572732F539E
:1035D000544D33324C3478785F48414C5F447269C3
:1035E0007665722F5372632F73746D33326C347837
:1035F000785F68616C5F7263635F65782E6300005B
:10360000FFFFEEFE00100240FF80FFF9FF80FDFF8C
:103610000000E0FFFF809FFF2DE9F04104460068B5
:103620008846002650B1012808D0022806D0032879
:1036300004D040F6114159A001F0D5FC6068401E4D
:10364000072804D940F6124154A001F0CCFCA06830
:1036500008384E2804D940F6134150A001F0C3FCAD
:103660006069C10301D4C10102D55B49084204D09D
:1036700040F6144149A001F0B6FC584DE8688007B7
:103680000ED0E86800F003012068814217D1B0B184
:10369000E8686168C0F30210401C88420FD121E045
:1036A0002068012804D0022805D0032807D108E0AB
:1036B0002968890701E029684905002907DB0126F7
:1036C00068E02968890302D429684903F5E7E968B5
:1036D00062686FF00F0321F0730103EB02121143D4
:1036E0000143E960286820F080502860FEF77EF9E9
:1036F000074604E0FEF77AF9C01B022841D8286883
:103700008000F7D4B8F1000F23D0206902280AD036
:10371000042808D0062806D0082804D040F69F4187
:103720001EA001F060FC207C4FF07E41400801EBC0
:103730004060A16840EA01206969294A11400843B4
:103740006861286840F080502860FEF74FF907460E
:1037500019E0E068072806D0112804D040F6674138
:103760000EA001F040FCA068E1680002090940EAEF
:10377000414069691B4AE1E7FEF738F9C01B02289E
:1037800001D9032606E028688000F5D568696169DB
:10379000084368613046BDE8F08100002E2E2F44BA
:1037A0007269766572732F53544D33324C34787886
:1037B0005F48414C5F4472697665722F5372632F84
:1037C00073746D33326C3478785F68616C5F7263E8
:1037D000635F65782E630000FFFFFEFE001002406D
:1037E000FF80FFF9FF80FDFFF8B51C4D0646002461
:1037F000A86DC00002D5FEF761FA0DE0A86D40F09B
:103800008050A865A86D00F080500090FEF756FA31
:10381000A96D21F08051A965B0F5007F04D0802EFC
:1038200007D94FF003040AE0802E08D9A02E01D852
:1038300004E001D1022402E0702E00D101240848E6
:10384000016821F0070121430160006800F00700D2
:10385000A04201D00120F8BD0020F8BD00100240B8
:10386000002002402DE9F0410746984616460D46D5
:10387000482000F0F5FE04463C223946FCF7EAFCFD
:1038800004F13C0080E860012046BDE8F08170470B
:103890002DE9F84F0446C06B01698847054600F0E2
:1038A000DFFE8246E06B2A465146436998476368CB
:1038B0002A465146204698472C4EE0B3206C0169B9
:1038C000884728B3616A204688470546A16A204692
:1038D00088470746284600F0C3FE8146384600F078
:1038E000BFFE8046226B494620469047E26A414629
:1038F000204690470097206C43462A464768494631
:10390000B84708B3404600F07DFE484600F07AFE16
:10391000606C316800F0BBF9606C00F003FAA168DC
:1039200020468847E06B416A8847504600F06AFEAF
:10393000012000F01DB8FFE7606C716800F0A7F986
:10394000606C00F0EFF90CE0606C716800F09FF9BA
:10395000606C00F0E7F9404600F054FE484600F085
:1039600051FE504600F04EFE0020E2E7100000201D
:1039700018BCBDE8E08F704710B50446806D00F0BC
:1039800049F9A06DBDE8104000F0CCB970B505460E
:10399000002405E0686850F82400FDF742F9641C33
:1039A0002868A042F6D8E86BFFF748FB002068645F
:1039B00070BD00002DE9F043064689B0C06DFDF7EB
:1039C0002DF9002834D0306DFFF762FF00282FD08A
:1039D000306DFFF75CFFC1680546884704468000EC
:1039E00000F03EFEA946804600250DE0D9F8107093
:1039F00048462B461E226946B84769463069FDF79E
:103A0000C0FA48F825006D1CA542EFD346460025B4
:103A100006E000BF56F8250008B1416888476D1CD4
:103A2000A542F7D309B04046BDE8F04300F0EABD37
:103A300009B0BDE8F08300002DE9FF4F83B0814657
:103A4000DDE9106A9B460D46682000F009FE044639
:103A5000002060640120A063464884F84060C4E907
:103A600005404548E061454860624548E062454898
:103A700020634548A0624548206245486063681C51
:103A800000FB09F000EB8000C82101EB400805EBCA
:103A9000C50000EB0510490001EB40070598FCF755
:103AA000B3FF60663846FDF7A3F8E0654046FDF7D2
:103AB0009FF8AE002066304600F0D2FD60603046D0
:103AC00000F0CEFD25600026A0600AE0FDF71EFD97
:103AD000A16841F82600FDF7A7F8616841F82600C3
:103AE000761CAE424846F1D3FFF7ACFAE06300F033
:103AF000D7F9E060FDF7C8FC5946A064FDF7CCFC9F
:103B00000646206EFDF787F800960346216840467A
:103B1000059AFFF79DFB6065FFF704FC04F11405AF
:103B2000616E0095CDE901A1D4E90021E36800F0C0
:103B300097F8A0653846FFF7F7FBE064E06DFDF706
:103B40006AF80746E06CFFF749FC32463946A36D38
:103B5000FFF788FE2065FFF79AFE0090D4E9002168
:103B60002846E368FDF7B8F9206107B0204600F069
:103B700011B800000F5800081B580008155800081D
:103B8000F5570008FB57000867770008035800083E
:103B90000958000830BCBDE8C08FC06DFDF73BB8C8
:103BA00038B504460020009094F8400010B1012878
:103BB00006D006E0A16B606C08446064009000E0F1
:103BC000009101226946E06BFFF7ACFA002505E0A1
:103BD000606850F82500FDF74BF86D1C2068A8427E
:103BE000F6D8E068009900F07DF938BD38B5049C3E
:103BF0000094406EFCF741FF38BD10B50446806D5F
:103C000000F04FF8A06D00F08DF8E068BDE81040BE
:103C100000F063B92DE9F04105464069FCF72BFF40
:103C2000064600240D4F11E021466869FCF71DFF90
:103C3000014690F82400012807D1887F0B6A57F8C5
:103C400020202868D0F81CC0E047641CB442EBD3A5
:103C500028684168BDE8F0410847000018000020CE
:103C60002DE9F047074608A81C4690E800071546CE
:103C70000E461C2000F0F4FCC0F81890C0F8088034
:103C8000E0E8037480E860040C38BDE8F08710B504
:103C9000044600688269904720684168BDE810408A
:103CA00008472DE9F0410446002510E0206950F84E
:103CB0002500FCF7D6FF48B1206950F82500FCF735
:103CC000CBFF014620682A46836898476D1CE06850
:103CD000A842EBD8606800F0FDF80646606800F086
:103CE000F5F80546606800F0F3F8034620682A46B8
:103CF00031464769B847A068C169884701462068CE
:103D000002699047A0684169884730B1A06881691D
:103D1000884701462068C268904720684168BDE82E
:103D2000F041084710B504468069002805D0206896
:103D3000016A8847A1698847012010BD10B5FDF7C9
:103D40005BFEBDE81040FEF7F8BF000030B5B9B02B
:103D50000224E00125901020229426902C9401202A
:103D6000CDE92D400A202F900720CDE9300422A86C
:103D70003294FEF779FC08B1C1211CE00F20002528
:103D800033900320CDE934053695042133A83795C7
:103D9000FEF7E0FA08B1CF210DE00F9568460094D8
:103DA000FDF794FF08B1D62105E04FF40070FDF750
:103DB00029FF18B1DD210AA000F000FCFEF7D8FBB6
:103DC0004FF47A71B0FBF1F0FEF7A3FF0420FEF789
:103DD0006DFF00221146501EFDF784FE39B030BD44
:103DE0002E2E2F5372632F6D61696E2E63000000BB
:103DF0000D48016841F4700101600C48016841F010
:103E000001010160002181600268094B1A400260D3
:103E10008214C260026822F4802202608161024939
:103E2000C00380390860704788ED00E00010024050
:103E3000FFFFF6EA0FB4382210B58EB0044611A980
:103E40006846FCF707FA9DF8080018B1012801D070
:103E5000022805D10198401C07D00198012804D000
:103E600000200EB010BC5DF814FB382211A9684682
:103E7000FCF7F0F99DED000A282284ED000A019874
:103E8000606004F10C0003A9FCF7E4F99DF8080058
:103E900004EB8000406B20640D9860640120E0E733
:103EA00010B54C2000F0DCFB0549064AC0E90D21A5
:103EB000054AC2630022426480F84820016410BDB4
:103EC0007B7700087F770008BD770008406C70475B
:103ED0008068704790F848007047002180F84810CB
:103EE0008160704710B5026C0446904784F8480022
:103EF00010BD000070B50446406AFF2804D940F6A2
:103F000014416EA001F06FF894F82400C00710D09F
:103F1000A06A38B1B0F5003F04D040F6194167A05F
:103F200001F061F820684168A26A21F40031114370
:103F3000416094F82400800710D5E06A38B1B0F5EC
:103F4000803F04D04FF442615CA001F04CF820683F
:103F50004168E26A21F480311143416094F8240001
:103F6000400710D5206B38B1B0F5802F04D040F653
:103F7000274152A001F037F820684168226B21F4F4
:103F800080211143416094F82400000710D5606B34
:103F900038B1B0F5004F04D040F62E4147A001F0F3
:103FA00022F820684168626B21F4004111434160AE
:103FB00094F82400C00610D5A06B38B1B0F5805F2E
:103FC00004D040F635413DA001F00DF8206881682D
:103FD000A26B21F480511143816094F82400800683
:103FE00010D5E06B38B1B0F5005F04D040F63C412D
:103FF00032A000F0F8FF20688168E26B21F40051E4
:104000001143816094F82400400640D53A49206865
:10401000884210D0394988420DD0394988420AD0A7
:104020003849884207D03849884204D040F6434195
:1040300022A000F0D8FF206C4FF4801530B1A842C8
:1040400004D040F644411DA000F0CDFF2068416837
:10405000226C21F4801111434160206CA84216D1DA
:10406000606C68B1B0F5001F0AD0B0F5800F07D0C2
:10407000B0F5C00F04D040F6494110A000F0B3FFE6
:1040800020684168626C21F4C0011143416094F8DA
:104090002400000610D5A06C38B1B0F5002F04D074
:1040A00040F6514105A000F09EFF20684168A26CD7
:1040B00021F400211143416070BD00002E2E2F44D9
:1040C0007269766572732F53544D33324C3478785D
:1040D0005F48414C5F4472697665722F5372632F5B
:1040E00073746D33326C3478785F68616C5F7561BE
:1040F00072742E630000000000380140004400404C
:1041000000480040004C004000500040F8B5002638
:1041100004464667FDF76AFC0546206800686FF0B4
:104120007E47000708D52B4600224FF40011204699
:10413000009700F0F8F960B92068006840070AD5D8
:104140002B4600224FF480012046009700F0EBF947
:1041500008B10320F8BD202084F8710084F87200B3
:1041600084F870600020F8BD2DE9F05F04464068D7
:10417000CF4910250027884204D340F6EC21CDA07A
:1041800000F031FFA0684FF48056B0F1805F07D097
:1041900030B1B04204D040F6ED21C6A000F023FFBC
:1041A000DFF84C8320684FF400514045E06806D1A9
:1041B00000281BD0884219D04FF42F6113E0B04281
:1041C0000AD048B1B0F5405F06D0884204D040F62E
:1041D000F421B8A000F007FF206A38B1B0F5006FF5
:1041E00004D040F6F521B3A000F0FDFE20694FF4A5
:1041F000806A48B1504507D0B0F5C06F04D040F692
:10420000F821ACA000F0EFFE606930F00C0100D1A5
:1042100020B940F6F921A7A000F0E5FEA0694FF40F
:10422000807B4FF4407658B1584509D0B0F5007FF7
:1042300006D0B04204D040F6FA219EA000F0D3FE92
:10424000E0694FF4004930B1484504D040F6FB2105
:1042500098A000F0C8FE2169A068E269084361697E
:104260001143084321680A68A24B1A4002430A60BE
:1042700020684168E26821F440511143416021689F
:10428000A069414501D0226A10438A6822F4306255
:1042900002438A60984A2168984891420DD1D0F82B
:1042A000880010F0030006D0012857D0022853D010
:1042B000032856D154E0012553E0914A91420BD195
:1042C000D0F8880010F00C0044D0042846D008280C
:1042D00042D00C2845D143E08A4A91420BD1D0F814
:1042E000880010F0300035D0102837D0202833D087
:1042F000302836D134E0844A91420BD1D0F888007E
:1043000010F0C00026D0402828D0802824D0C02813
:1043100027D125E07D4A91420CD1D0F8880010F4D5
:10432000407017D0584519D0B0F5007F14D0B04276
:1043300017D115E0414514D1D0F8880010F4406041
:1043400008D050450AD0B0F5006F05D0B0F5406FE9
:1043500007D105E0002504E0022502E0042500E085
:1043600008256B48002641453FD135B1022D0AD0C2
:10437000042D05D0082D11D10EE0FEF7FFF801E065
:10438000FEF720F980B3626802EB4201814205D852
:10439000B0EB023F02D803E04846F4E7012772E0A1
:1043A000DFF870815DB1022D0CD0042D13D0082DE3
:1043B000F4D150082905401846F1000105E0FEF748
:1043C000DDF80AE050085449F5E70023FBF7F8FE52
:1043D000A0F5407153E0FEF7F5F86268010E0302A4
:1043E000500818187141F0E74DE0E2694FF6EF7898
:1043F0004A452DD1092DD1D2DFE805F00609200567
:10440000230505052600C9E7FEF7B8F801E0FEF729
:10441000C7F84100D4F8040001EB5001B1FBF0F003
:1044200080B2A0F110014145B8D84FF6F0710140BB
:10443000C0F3420001432068C16024E0374960684E
:10444000EAE7FEF7BFF8E4E74FF480316068E3E79E
:10445000092DA3D2DFE805F006091C052205050594
:1044600025009BE7FEF78AF801E0FEF799F8014680
:10447000606801EB500117E080B2A0F110014145E6
:104480008CD82168C86026663846666600F048B851
:10449000616800EB5100B0FBF1F0EDE7FEF792F838
:1044A000E5E7606809EB5001B1FBF0F0E4E70000DC
:1044B000819698002E2E2F447269766572732F5361
:1044C000544D33324C3478785F48414C5F447269C4
:1044D0007665722F5372632F73746D33326C347838
:1044E000785F68616C5F756172742E630000000014
:1044F00000800040F369FFEF0038014000100240E7
:104500000044004000480040004C00400050004083
:104510000024F400FFFC0F00000024F40048E80130
:1045200030BCBDE8C09F2DE9F041984617460E46C5
:104530000446069D1DE0681C1BD02DB1FDF756FA00
:10454000A0EB0800A84214D92068016821F4D071BA
:1045500001602068816821F001018160202084F8D9
:10456000710084F87200002084F870000320BDE818
:10457000F0812068C06936EA000004D00020B8420B
:10458000D9D00020F3E70120F9E7000010B514208E
:1045900000F066F8044901610449C1600449816082
:1045A0000449C0E9000110BD6550000879510008B8
:1045B00031530008D77800087047FEE71CB500208B
:1045C00000900346032201901146C820FFF734FAF9
:1045D000FEE700000FB4084B10B504A902AA039827
:1045E00000F044F9044602A9002000F0D9FC20465E
:1045F00010BC5DF814FB0000A14F00080048704794
:104600009000002030B528B1144C031F0020216811
:104610000A4605E0084630BD9A4203D81046526863
:10462000002AF9D1002800D041680BD00468A3EB20
:104630000005A54204D11B681C440346046002E047
:10464000436000E023603AB11C68D51AA54203D14B
:1046500015682C441C6052685A6030BD88000020E8
:104660002DE9F04782460F4C10480D4E0E4F001BAF
:104670004FF0000820F007054FF001090022114615
:10468000504601F0FDF8002802D1306810B100203A
:10469000BDE8F0873C60C4E90058C6F80090EDE73B
:1046A0008C00002014010020880000201021002030
:1046B00002E008C8121F08C1002AFAD170477047EB
:1046C000002001E001C1121F002AFBD170470168E0
:1046D000491C016070470168491E01607047000075
:1046E0002DE9FF5F82B00021DDE90430020DDDF825
:1046F00040B0034318D044F61050A2F2FF324243B8
:104700001514119801281FD0A5EB0B00401C5FEA7F
:10471000000A4FF000064E4FDFF83891B046504681
:1047200015D5CAF1000413E0119801244AA3012809
:1047300001D16FEA0B010298119AC0E90031C0E97A
:10474000024206B000F08EB8CBF10000DFE704466D
:104750000021404A491842EB0450CDE9001012E014
:10476000E00707D032463B4640464946FBF755FF37
:104770008046894632463B4610461946FBF74DFFB8
:1047800006460F466410002CEAD1DDE90401DDE99C
:104790000023BAF1000F06DAFBF73FFF42464B4613
:1047A000FBF73BFF05E0FBF7ADFF42464B46FBF74F
:1047B000A9FF04460E460022284BFCF72BF803D82D
:1047C0004FF0FF30014607E00022254B20463146DE
:1047D000FBF774FEFCF705F8102409E0002C0ADB57
:1047E0000A220023FBF7ECFC039B30321A55641EAF
:1047F00050EA0102F2D1641C039AC4F1110314447B
:10480000119A012A03D0012208430DD10AE008437E
:1048100004D000204FF0110B119072E7A3EB0B05B1
:104820006D1E0DE05B4504DD4FF0000205F1010552
:1048300004E003DA4FF00002A5F10105002AECD0F4
:1048400002981199C0E90231C0E9004579E70000FA
:10485000000014400000F03F300000000000F04372
:104860000000E03F30BCBDE8C09F00002DE9FF4FD5
:1048700095B09B468946064600250FE2252877D14C
:1048800000242746F84A0121059400E0044316F865
:10489000013F203B01FA03F01042F7D130782A287B
:1048A00011D06FF02F033078A0F13002092A16D80A
:1048B000059A44F0020402EB820203EB4202104428
:1048C000761C0590EFE759F8042B0592002A03DACD
:1048D000504244F40054059044F00204761C3078B1
:1048E0002E2816D116F8010F44F004042A280DD002
:1048F0006FF02F023078A0F13003092B09D807EBB5
:10490000870302EB4303C718761CF3E759F8047BCF
:10491000761C30786C280FD006DC4C2817D068281D
:104920000DD06A2814D104E0742810D07A280FD151
:104930000DE044F400140AE044F4801401E044F46F
:1049400040147278824202D104F58014761C761CE1
:10495000307866280BD013DC582877D009DC002883
:1049600075D04528F6D04628F4D047281AD19DE1C5
:1049700018E0632835D0642879D0652812D195E1F4
:10498000702873D008DC6728F1D069286FD06E28B2
:104990000DD06F2806D1B5E073282CD0752875D0BE
:1049A000782874D05A46179990476D1C75E1C4F366
:1049B0000250022809D003280DD0D9F8001004288D
:1049C0000DD00D6009F1040967E1D9F80010EA176C
:1049D000C1E90052F6E7D9F800100D80F2E70D703A
:1049E000F0E719F8041B8DF8001000208DF8010085
:1049F000EA46012003E059F804AB4FF0FF306107AD
:104A00004FF0000102D40DE008F101018846B942DF
:104A10000FDA8045F8DB1AF808100029F4D108E015
:104A200008F1010188468142FADB1AF808100029D2
:104A3000F6D105985B46A0EB080721463846179A41
:104A400000F097FA284400EB080507E04DE029E163
:104A50000DE01AF8010B5A4617999047B8F1010872
:104A6000F7D25B4621463846179A13E142E00A2204
:104A70000092C4F302524FF0000A022A08D059F8FB
:104A800004CB032A4FEAEC710AD00DE029E02AE0BA
:104A900009F1070121F00702F2E802C1914609E09D
:104AA0000FFA8CFC4FEAEC71042A03D14FFA8CFC0C
:104AB0004FEAEC71002907DA0A460021DCF1000C0C
:104AC00061EB02012D2202E0220504D52B228DF894
:104AD0000420012203E0E20701D02022F7E79046FC
:104AE00059E00A2102E010220DE010214FF0000AE7
:104AF00000910BE010224FF0000A44F00404082754
:104B0000009203E008224FF0000A0092C4F3025220
:104B1000022A05D059F804CB0021032A08D009E065
:104B200009F1070121F00702F2E802C1914605E010
:104B30001FFA8CFC042A01D10CF0FF0C4FF0000886
:104B4000220728D5702806D0009B83F0100353EA73
:104B50000A0305D00EE040228DF80420012208E06F
:104B60005CEA010206D030228DF804208DF80500A1
:104B700002229046009B83F0080353EA0A030AD1FD
:104B80005CEA010201D1620705D530228DF80420CC
:104B90004FF001087F1E582804D034A003900EA8BF
:104BA00002900DE036A0F9E753466046009AFBF705
:104BB00007FB84460398825C0298401E02900270B4
:104BC0005CEA0100F0D1029806A9081A00F1200A57
:104BD000600702D524F4803400E00127574502DD48
:104BE000A7EB0A0000E0002000EB0A010090059806
:104BF0004144401A0590E00306D45B462146179ACB
:104C0000059800F0B6F90544002706E001A85A46C9
:104C1000C05D179990476D1C7F1C4745F6DBE0038C
:104C20000CD55B462146179A059800F0A2F9054479
:104C300004E030205A46179990476D1C0099481E91
:104C400000900029F5DC08E0029802995A460078A5
:104C5000491C0291179990476D1CBAF10001AAF105
:104C6000010AF1DC65E1000009280100303132332E
:104C70003435363738396162636465660000000098
:104C80003031323334353637383941424344454682
:104C90000000000000F05BF90544761C3078002825
:104CA0007FF4ECAD19B0284600F04EB9620700D48D
:104CB000062709F1070222F0070CFCE80223E1466F
:104CC00003F000485FEA080C02D00FF2702C0DE0F0
:104CD0005FEA045C02D50FF2682C07E05FEAC47C4F
:104CE00002D00FF2602C01E0AFF2700C4FF0FF38F1
:104CF00023F00043CDF850C065280CD006DC4528D1
:104D000009D046281DD047283DD13DE0662818D05F
:104D100067287ED138E00021112F01DB112000E04F
:104D2000781CCDE9000106A90EA8FFF7D9FCDDE942
:104D30000F010E9A03910021009207F1010A0491DC
:104D40004DE04FF000400097CDE9011006A90EA8F4
:104D5000FFF7C6FCDDE90F0203920E9B11990022BA
:104D6000DDF80CA00093049211B9791C00EB010A44
:104D7000B7EB0A0004D4C0F1FF3007F1010A049038
:104D8000AAEB0700019044E0012F00DA012700217F
:104D9000112F01DD112000E03846CDE9000106A900
:104DA0000EA8FFF79DFCDDE90F010E9A039100218B
:104DB00004910092BA4621070CD40399514500DAB8
:104DC0008A46BAF1010F05DD009AAAF10101515C92
:104DD000302908D0B84202DA10F1040F06DA0121B6
:104DE000CDE9011015E0AAF10101E9E7002805DC91
:104DF000049901440491AAEB000102E0411C5145D1
:104E000000DD8A460499401A401C01904FF0004092
:104E10000290200704D40198504501DBCDF80480AE
:104E200000208DF84F0002980DF14F07B0F1004FB0
:104E300025D02B200E9002984FF0020800280CDAA3
:104E4000404202902D200E9007E00A210298FBF7C5
:104E500091FA3031029007F8011DB8F10001A8F174
:104E60000108F2DC02980028EFD1791E0E98087034
:104E7000307800F0200040F0450007F8020D12A83D
:104E8000C01B00F107081498007800B1012000EB66
:104E90000A01019801EBE07105984144401A401E57
:104EA0000590E00306D45B462146179A059800F06A
:104EB00060F805441498007818B15A46179990473D
:104EC0006D1CE00324D55B462146179A059800F037
:104ED00050F805441CE00498002807DBDDE90301D5
:104EE000884203DD0098405C179901E01799302053
:104EF0005A469047049805F10105401C049001981A
:104F0000401E019004D12E205A46179990476D1CDF
:104F1000BAF10001AAF1010ADDDC05E017F8010B86
:104F20005A46179990476D1CB8F10001A8F1010885
:104F3000F4DC5B462146179A0598ABE62D0000008D
:104F40002B0000002000000030BCBDE8C08F2DE920
:104F5000F041044600251E461746880404D405E0A7
:104F600039462020B0476D1C641EF9D52846BDE89F
:104F7000F0812DE9F041044600251E469046C80305
:104F800001D5302700E02027880404D505E04146FC
:104F90003846B0476D1C641EF9D52846BDE8F0813F
:104FA0000A68531C0B601070704710B5046890B00D
:104FB000182204F1680004F14801FBF74BF904F1F1
:104FC00050010FC98DE80F00D4E912230AA800F0A0
:104FD000E1F918220AA904A8FBF73CF90698C4F8DD
:104FE000B40010B010BD704770B50546046803E00A
:104FF00054E902108847083CA868A042F8D170BD67
:1050000091EC020A90ED001AF4EEC00AF1EE10FAEB
:1050100001DD012101E04FF0FF31F4EE400AF1EE35
:1050200010FA19D04068884216D1F4EEC00AF1EEA9
:1050300010FA02DDF0EE401A01E0F0EE601A01DD38
:10504000B0EE600AB4EEE11AF1EE10FA04D3B4EE59
:10505000C01AF1EE10FA01DD002070470120704700
:10506000002070470120704770477047704700006C
:105070002DE9FC41044638300221804600F066FEEE
:10508000324E7068FBF716F90146404600F0C4FF47
:105090007068FBF70FF902464046716800F0EAFFBE
:1050A000A06D01698847C8B3A06D8168884705462F
:1050B000FFF7D6FA0746D4E91603226ED0F80CC0E3
:1050C0003946E0472846FF2D06D8C4218DF8001048
:1050D0008DF80150022214E0B0F5803F0AD2C521BC
:1050E0008DF80010C0F3072141EA0520ADF801005A
:1050F000032206E0C6218DF8001028BACDF8010081
:105100000522D4E90E0369469847D4E90E033946CF
:105110002A4698473846FFF775FA05E0FFE7D4E9D5
:105120000E0301220A4998473068FBF7C3F801468D
:10513000404600F071FF3068FBF7BCF8316802466A
:1051400002B04046BDE8F04100F094BF30000020BE
:105150008C79000810B5002302E0CC5CC4545B1CC1
:105160009342FAD310BD30B514460546FFF7F2FF5F
:105170000020285530BD704730B4144608462146FB
:1051800030BC1A4600F034B800B50068FCF721FACC
:10519000002800D0012000BD00B50068FDF7B2FF77
:1051A000002800D0012000BD00B50068FBF7EFFC2F
:1051B000002800D0012000BD10B504460121FFF7F2
:1051C0008AFA002804D12046BDE81040FFF71ABA39
:1051D00010BD006801684160816070470068016827
:1051E000416081607047006801684160816070477C
:1051F00030B500231C4602E00D5D641C2B44944234
:10520000FAD30021CC0023FA04F24254491C0429A9
:10521000F8DB30BD0FB410B50A990A7A3AB19DF89F
:105220001020062A03D1C968069A914206D3182293
:1052300004A9FBF70FF810BC5DF814FB079A10BC2B
:1052400001EB410102EBC10118225DF814EBFBF701
:1052500001B810B50C4692B0016806A8226800F0AB
:1052600069F8DDE90A010DF1180CCDE900019CE8AF
:105270000F0000F053FC002827D060680DF1200CCF
:1052800004909CE80F008DE80F00DDE906230CA8D0
:1052900000F0F0F818220CA906A8FAF7DBFF0DF1D0
:1052A000200C04949CE80F008DE80F00DDE9062334
:1052B0000CA8FFF7AFFF18220CA906A8FAF7CAFF3F
:1052C0009DF81800012802D0002012B010BD9DF8F2
:1052D0002000FAE70068806F70470B4601681846A7
:1052E000D1E92821FFF736BF30B50C4601688DB0F3
:1052F0000BA001F1700204902DCA8DE82D00D1E9B8
:105300001A2306A800F088FB9DF81800082804D18D
:10531000DDE908212046FFF71DFF0DB030BD00007C
:105320007472616E73706F727400000000207047B9
:105330000420704770B5054601F1700014464DC851
:1053400092B08DE84D00D1E91A2306A800F022F8AA
:105350009DF81800072805D000208DF800001822BD
:10536000694611E008AE049496E80F008DE80F003E
:10537000DDE906230CA800F04FFB18220CA906A8B3
:10538000FAF768FF182206A92846FAF763FF12B059
:1053900070BD0000F0B593B018AF054697E8530014
:1053A00018A78DE8D3000CA800F036FB18220CA932
:1053B00006A8FAF74FFF9DF818000024072804D02C
:1053C0008DF800401822694616E010A008AE04903F
:1053D00096E80F008DE80F00DDE906230CA800F029
:1053E0001BFB18220CA906A8FAF734FF9DF8180039
:1053F0000728E5D1182206A92846FAF72BFF13B093
:10540000F0BD00007061796C6F61640073635F636D
:105410006D640000014800687047000064000020CF
:1054200001480068704700006800002001480068DB
:10543000704700006C0000200148006870470000C1
:1054400070000020014800687047000074000020D0
:10545000014800687047000078000020014800689B
:10546000704700007C000020014800687047000081
:10547000800000200FB470B586B005469DF830005E
:105480000024129E072804D08DF800401822694697
:1054900021E014A13046FAF714FFD0B10296DDE9FD
:1054A00010010DF1300CCDE900019CE80F0000F077
:1054B00075FA411CE8D000EB400018220F9902EB6E
:1054C0000010014406B0284670BC5DF814EBFAF7F2
:1054D000C1BE18220CA92846FAF7BCFE06B070BC63
:1054E0005DF814FB0000000010B50C462DED028B9A
:1054F00092B0016806A82268FFF71CFF0DF1200C8E
:1055000004949CE80F008DE80F00DDE906230CA849
:10551000FFF780FE18220CA906A8FAF79BFEDDE92A
:105520000A010DF1180CCDE900019CE80F0000F014
:10553000F5FA9FED1E8A50B360680DF1200C0490BF
:105540009CE80F008DE80F00DDE906230CA8FFF7AB
:1055500091FF18220CA906A8FAF77CFE0DF1200C89
:1055600004949CE80F008DE80F00DDE906230CA8E9
:10557000FFF750FE18220CA906A8FAF76BFE9DF85B
:105580001800042809D00A2807D0042805D0B0EE56
:10559000480A12B0BDEC028B10BD9DED080B51EC1A
:1055A000100BFAF7CBFE00EE100AF2E70000000045
:1055B00010B50C4692B0016806A82268FFF7BAFE43
:1055C000DDE90A010DF1180CCDE900019CE80F009E
:1055D00000F0A4FA88B160680DF1200C04909CE8FA
:1055E0000F008DE80F00DDE906230CA8FFF742FF4E
:1055F00018220CA906A8FAF72DFE0DF1200C049430
:105600009CE80F008DE80F00DDE906230CA8FFF7EA
:1056100001FE18220CA906A8FAF71CFE9DF8180036
:10562000032804D0022802D0002012B010BD089830
:10563000FBE70068D0F8A0007047000010B58CB000
:1056400000680AA1049100F170011EC98DE81E00D6
:10565000D0E91A2306A800F0DFF99DF81800082801
:1056600002D000200CB010BD0898FBE77472616E88
:1056700073706F7274000000F0B505688BB01C0089
:1056800016460F4619D405F170000FC88DE80F00BB
:10569000D5E91A2304A8FFF77DFE9DF8100007281E
:1056A0000BD1079804EB440100EB0111182204A868
:1056B000FAF7D0FD0698B04202D900200BB0F0BD39
:1056C000024638460799FFF74EFD0120F6E770B510
:1056D00088B000680C9C1D461646002C1CDB0A4650
:1056E000014602A8FFF726FEDDE906010DF1080CD0
:1056F000CDE900019CE80F0000F010FA00280CD062
:10570000059804EB440100EB0111182202A8FAF7F6
:10571000A1FD0498A84202D9002008B070BD02463D
:1057200030460599FFF71FFD0120F6E70068D0F825
:10573000B400704700B500680A4689B0014602A867
:10574000FFF7F8FDDDE906010DF1080CCDE90001D8
:105750009CE80F0000F0E2F910B1049809B000BD18
:105760004FF0FF30FAE7F0B50D4693B014460168EC
:105770001E4606A82A68FFF7DDFDDDE90A0106AF2F
:10578000CDE9000197E80F0000F0C8F900282DD0FE
:10579000686808AF049097E80F008DE80F00DDE916
:1057A00006230CA8FFF766FE18220CA906A8FAF734
:1057B00051FD049597E80F008DE80F00DDE9062301
:1057C0000CA8FFF727FD18220CA906A8FAF742FD3E
:1057D0009DF81800052809D1089D0027AE4207DB77
:1057E0002A4620460999FAF759FD675513B0F0BDCE
:1057F0002770FBE70068806B70470068C06BFDF79F
:105800005FBC0068FEF7B8B80068FEF7BFB8006874
:10581000FEF7C6B900688163704710B50468A06DD3
:10582000FEF73FFAA06DBDE81040FEF77BBA90F896
:105830007C10002912D190F8881000290ED190F820
:10584000981000290AD190F8A010002906D190F8EC
:105850005410002902D1416F491C4167704770B54F
:1058600004460D46081DFEF7FBFE002806D0011D6C
:105870002560C4E9011000210160012070BD000015
:105880002DE9F0410B3020F00706104D19E020689B
:10589000B04215D3B0420AD9871B201DD4F804802A
:1058A000FAF7D8FCA019C0E90078286004E0606825
:1058B0002860201DFAF7CEFC201D2660BDE8F0818F
:1058C000251D2C68002CE2D10020F7E7880000207D
:1058D0001CB5FCF799F8FEF739FAFDF747FCFDF720
:1058E0008DFC26490020CDE9000103460322114624
:1058F0004FF41670FEF7A0F880460020CDE90000B6
:1059000002231F4A1FA14046FEF770F90120002123
:105910001B4ACDE900010423121D1DA14046FEF7DC
:1059200065F94046FEF728F800241E27144E32255C
:105930002246641CD3174046FEF732F994FBF7F079
:1059400007FB10400028F3D1404601F0BBF9404668
:10595000FEF753F9FAF76CFC90FBF5F105FB11002B
:105960003060FAF765FC90FBF5F105FB110000EEE5
:10597000100AB8EEC00A86ED010AD9E7896B000863
:1059800000000020494E545F56414C554500000030
:10599000464C4F41545F56414C5545002DE9F0436C
:1059A00087B0C0B2DDF8408015461E464FF0FF3785
:1059B00007282FD100242BE004EB440006EB001154
:1059C00018226846FAF746FC9DF80000052821D108
:1059D0000298401CFEF744FEDDE902218146FFF7F4
:1059E000C2FB41464846029AFAF779FC60B9404644
:1059F000FAF760FC0299884206D14846FEF702FE9B
:105A0000204607B0BDE8F0834846FEF7FBFD641C66
:105A1000A542D1D83846F4E70FB419A130B587B004
:105A20000446129D2846FAF74CFCC0B10295DDE908
:105A300010010DF1300CCDE900019CE80F00FFF7DB
:105A4000ADFF00280EDA00208DF80000182269460C
:105A50002046FAF7FFFB07B030BC5DF814FB1822B4
:105A60000CA9F5E700EB400018220F9902EB00109B
:105A7000014407B0204630BC5DF814EBFAF7EABBEE
:105A8000000000002DE9F04790B0164619AAF0B2C8
:105A900092E81003189F9A4607281CD12078052801
:105AA00019D1E568072218A12846FAF718FC28B191
:105AB000092217A12846FAF712FC60B9E56B072204
:105AC00011A12846FAF70BFC48B1092210A128467B
:105AD000FAF705FC18B1002010B0BDE8F08701A965
